:020000040800F2
:10000000700700202902000867190008011700087E
:10001000651900081F0400081F1D000800000000EB
:100020000000000000000000000000006D19000842
:100030005104000800000000691900086F19000849
:10004000430200084302000843020008430200087C
:10005000430200086B19000843020008430200082D
:10006000430200084302000843020008430200085C
:10007000430200084302000843020008430200084C
:100080004302000843020008430200084504000838
:10009000210400082D040008390400084302000868
:1000A000191A00083D1A0008311A0008251A00081C
:1000B000491A0008551A00084302000843020008C4
:1000C00043020008430200084302000843020008FC
:1000D00043020008430200084302000843020008EC
:1000E00043020008430200084302000843020008DC
:1000F00043020008430200084302000843020008CC
:1001000043020008430200084302000843020008BB
:1001100043020008430200084302000843020008AB
:10012000430200084302000843020008430200089B
:10013000430200084302000843020008430200088B
:10014000430200084302000843020008430200087B
:10015000430200084302000843020008430200086B
:10016000430200084302000843020008430200085B
:100170004302000843020008430200080000000098
:10018000430200084302000800F002F800F03CF8C7
:100190000AA090E8000C82448344AAF10107DA45E2
:1001A00001D100F031F8AFF2090EBAE80F0013F0F8
:1001B000010F18BFFB1A43F001031847BC1B0000D6
:1001C000DC1B0000103A24BF78C878C1FAD8520767
:1001D00024BF30C830C144BF04680C6070470000C1
:1001E0000023002400250026103A28BF78C1FBD840
:1001F000520728BF30C148BF0B6070471FB501F0E0
:10020000AEFD1FBD10B510BD00F0D4F81146FFF7CC
:10021000F5FF01F095FD00F0F2F803B4FFF7F2FFEF
:1002200003BC00F0F5F80000094880470948004782
:10023000FEE7FEE7FEE7FEE7FEE7FEE7FEE7FEE796
:10024000FEE7FEE704480549054A064B70470000F3
:10025000091A0008890100087001002070070020B9
:10026000700300207003002053EA020C00F0698044
:100270002DE9F04B4FF00006002B1FBFB3FA83F5BA
:1002800003FA05F424FA05F65E4012BF1643B2FAEB
:1002900082F502FA05F4C5F120051EBF22FA05FC1D
:1002A00044EA0C04203556EA044C4FEA144418BFC3
:1002B000641C4FF000084FF00009904271EB030CF2
:1002C00039D3002919BFB1FA81F701FA07F6B0FA5C
:1002D00080F700FA07F6C7F120071EBF20FA07FCD7
:1002E00046EA0C062037B6FBF4FCA7EB0507103FE7
:1002F00007F01F0BCBF120060CFA0BFB2CFA06F6CD
:1003000044BFB3460026202FA4BF5E464FF0000B2B
:100310005BEA060C08BF4FF0010B19EB0B09ABFBB6
:10032000027C48EB0608C01B06FB02CC0BFB03CC8F
:1003300071EB0C01C1E70B46024641464846BDE859
:10034000F08B13B54FF000004FF00001AFF30080C9
:10035000BDE81C4070474FF0000200B513469446BC
:100360009646203922BFA0E80C50A0E80C50B1F10D
:100370002001BFF4F7AF090728BFA0E80C5048BF21
:100380000CC05DF804EB890028BF40F8042B08BFBF
:10039000704748BF20F8022B11F0804F18BF00F8BB
:1003A000012B704770477047704700000048704746
:1003B000100100207546FFF7F9FFAE4605006946BB
:1003C000534620F00700854618B020B5FFF73AFFE6
:1003D000BDE820404FF000064FF000074FF0000846
:1003E0004FF0000B21F00701AC46ACE8C009ACE8C7
:1003F000C009ACE8C009ACE8C0098D46704710B52B
:100400000446AFF300802046BDE81040FFF705BF6B
:1004100001491820ABBEFEE7260002007047FEE748
:10042000014800F019B8000010000020014800F059
:1004300013B8000010000020014800F00DB80000C3
:1004400010000020014800F007B800001000002054
:10045000704772B6FEE770472DE9F05F0546006809
:1004600000244669D0F804908768D0F80CB0D0F822
:1004700010A0D0F81880F10748D0F90714D0012156
:100480008160B80703D5284600F0CEF90CE0780764
:1004900002D54FF4006407E0380702D54FF48054CA
:1004A00002E0284600F0BFF9F80516D529684FF498
:1004B00080708860B80503D5284600F0B7F90CE0D5
:1004C000780502D544F4005407E0380502D544F419
:1004D000804402E0284600F0A8F9F80316D5296800
:1004E0004FF480308860B80303D5284600F0A0F9A7
:1004F0000CE0780302D544F4004407E0380302D549
:1005000044F4803402E0284600F091F9300707D522
:100510005FEACB6004D52968102044F40074C860F9
:1005200070074FF0080707D55FEA0B7004D52868FD
:10053000C760284600F072F9B00706D52868C06881
:10054000800702D0284600F06AF9700607D55FEAF6
:10055000CA6004D52968102044F480640861B0069C
:1005600007D55FEA0A7004D528680761284600F0BD
:1005700057F9F00606D528680069800702D028469A
:1005800000F04FF9B00308D55FEAC96005D52968C6
:1005900010204860284600F045F9F00307D55FEACF
:1005A000097004D528684760284600F042F93004F5
:1005B00046D55FEA497040D5F00504D55FEAC870BA
:1005C00001D044F00104B00504D55FEA887001D57C
:1005D00044F00204700504D55FEA487001D544F088
:1005E0000404300529D518F0700F26D008F07000EB
:1005F000402815D006DC102809D020280AD0302841
:1006000016D10AE050280ED0602811D10EE044F037
:1006100008040DE044F010040AE044F0200407E070
:1006200044F0400404E044F0800401E044F48074A9
:100630002868816921F0700181612968042048607F
:10064000002C05D0686A204368622846FFF703FF44
:10065000BDE8F09F70B5040003D094F8200010B1FD
:1006600004E0012070BD204600F082F82068016897
:1006700041F00101016000F0DBF90546052604E0C8
:1006800000F0D6F9401B0A2811D820684068C0073E
:10069000F6D02068016821F00201016000F0C8F97D
:1006A00005460BE000F0C4F9401B0A2806D9606A31
:1006B00040F40030606284F82060D2E7206840682F
:1006C0008007EFD4207E0128206801683DD021F00A
:1006D00080010160607E01282068016838D021F027
:1006E00040010160A07E01282068016833D021F01C
:1006F00020010160E07E0128206801682ED041F0D1
:1007000010010160207F01282068016829D021F0B4
:1007100008010160607F01282068016824D021F071
:1007200004010160D4E902010843D4E90412114331
:1007300008436168491E08432168C861002060625F
:10074000012084F82000002070BD41F08001C0E746
:1007500041F04001C5E741F02001CAE721F0100156
:10076000CFE741F00801D4E741F00401D9E70000E8
:1007700010B586B0044614216846FFF7ECFD244905
:100780002068884241D123480021026842F000726B
:100790000260006800F0007005901E481038026882
:1007A00042F001020260006800F0010005904FF481
:1007B000C05000900220CDE90101032003900920E0
:1007C00004906946144800F035F8002211461320C1
:1007D00000F0A4F9132000F093F900221146142030
:1007E00000F09CF9142000F08BF90022114615202E
:1007F00000F094F9152000F083F90022114616202C
:1008000000F08CF9162000F07BF906B010BD000056
:1008100000640040403802400000024070477047CA
:100820007047704770477047704770477047704710
:10083000704770472DE9F84FDFF8BCA10022012571
:1008400003264FF00F090AF1040BAAF1040E00BFB2
:100850000B6805FA02F42340A34270D10F7907F028
:100860000307012F01D0022F16D187684FEA4208F3
:1008700006FA08FC27EA0C07D1F80CC00CFA08FCB1
:100880004CEA070CC0F808C04768A7430C79C4F3CA
:10089000001494403C4344600C79E443A4070AD01C
:1008A000C4684FEA420C06FA0CF7BC438F6807FA9B
:1008B0000CF72743C7600C7904F00304022C12D113
:1008C000D40800EB840CDCF820405707FF0E09FA2F
:1008D00007F824EA0804D1F8108008FA07F848EA73
:1008E0000408CCF8208004684FEA420C06FA0CF7A2
:1008F000BC430F7907F0030707FA0CF7274307609B
:100900004C6814F4403F70D03C4C276847F4804753
:100910002760246822F0030704F480440094384CD4
:1009200007EB040CDCF8084897074FEA177809FA38
:1009300008F7BC43334FB84202D1002724E054E00B
:10094000314FB84201D101271EE0304FB84201D1EA
:10095000022719E02E4FB84201D1032714E02D4F92
:10096000B84201D104270FE02B4FB84201D105272F
:100970000AE02A4FB84201D1062705E0284FB842C5
:1009800001D1072700E0082707FA08F72743CCF82A
:100990000878DAF800405746D1F804C09C435FEA73
:1009A000CC2C00D51C433C60DBF800405F46D1F8FE
:1009B00004C09C435FEA8C2C00D51C433C60DEF8ED
:1009C00000407746D1F804C09C435FEA8C3C00D5D8
:1009D0001C433C60084F083F3C68D1F804C09C436E
:1009E0005FEACC3C00D51C433C60521C102AFFF44B
:1009F0002FAFBDE8F88F0000083C014044380240AA
:100A000000300140000002400004024000080240A3
:100A1000000C024000100240001402400018024086
:100A2000001C02400AB1816170470904FBE7000025
:100A3000014880687047000000000020024881687B
:100A40000278114481607047000000200B4810B507
:100A5000016841F400710160016841F48061016046
:100A6000016841F480710160032000F077F80F20E5
:100A700000F006F800F024F8002010BD003C024011
:100A800070B50D4D04464FF47A712878B1FBF0F043
:100A90000A490968B1FBF0F000F0F2FA48B9102CED
:100AA00007D200222146501E00F038F800206C606A
:100AB00070BD012070BD0000000000200C0000206F
:100AC0000E4808B5016841F480410160006800F4F7
:100AD000804000900948001F016841F0805101608A
:100AE0000068002200F0805000901146052000F0C0
:100AF00015F8BDE80840052000F002B8443802406F
:100B0000002809DB00F01F0201219140400980000C
:100B100000F1E020C0F8001170470000F0B40E4B67
:100B20001B680C46C3F30223C3F10705042D00D94B
:100B30000425191D072901D2002300E0DB1E012630
:100B400006FA05F1491E214099409E40761E164046
:100B50003143F0BC01F0E4B80CED00E0064900F0D0
:100B6000070208684FF6FF03184040EA0220034AD4
:100B700010430860704700000CED00E00000FA052B
:100B80002DE9F0470E46050065D0DFF81481D8F84E
:100B90000000F7B200F00700B04207D288F80070FA
:100BA000D8F8000000F00700B04254D128683D4C4E
:100BB000810712D5400703D5206840F4E05020603B
:100BC0002878000703D5206840F460402060206842
:100BD000A96820F0F000084320602878C0072DD0D5
:100BE000304968680839012812D0022813D0032838
:100BF00011D00968890700292DDA216821F0030145
:100C000001432160FFF714FF814641F2883A0EE06C
:100C100009688903EFE709688901ECE7FFF708FF36
:100C2000A0EB0901514502D90320BDE8F0872068F7
:100C3000696800F00C00B0EB810FEFD1D8F800101C
:100C4000404601F00701B14207D90770006800F083
:100C50000700B04201D00120E7E72878400705D51A
:100C60002068E96820F4E0500843206028780007F5
:100C700006D52068296920F4604040EAC100206060
:100C800000F018F82168084AC1F30311515CC8400C
:100C90000649086006480068FFF7F2FE0020C4E736
:100CA000003C024008380240681D00080C0000208B
:100CB00004000020154810B5006810F00C0214481C
:100CC00013D04110042A0FD0082A0ED10F4C241F34
:100CD0002268236802F03F025B0207D52068C0F358
:100CE0008810A0FB010106E0084610BD2168C1F391
:100CF0008811A1FB00010023FFF7B6FA2168C1F3B8
:100D00000141491C4900B0FBF1F010BD0838024018
:100D10000024F4002DE9F84F04006ED02078DFF8AD
:100D20004C93C007A9F104054AD009F104000168F9
:100D3000C1F38101012908D00068C0F381000228B5
:100D40000AD1D9F80000400206D52868800337D5BB
:100D500060680028E1D033E06068B0F5803F10D0D3
:100D6000B0F5A02F286810D020F4803028602868C3
:100D700020F4802028606068A8B1FFF759FE06467D
:100D80000DE0286840F48030F4E740F480202860CB
:100D9000F7E700BFFFF74CFE801B642873D8286874
:100DA0008003F7D50CE0FFF743FE064605E000BFE1
:100DB000FFF73EFE801B6428F0D828688003F7D434
:100DC0002078DFF8AC8280074FF0000A3ED5A748B4
:100DD000001D016811F00C0F08D00068C0F38100FD
:100DE00002280BD1D9F80000400207D428688007F8
:100DF00016D5E068012800D112E033E1E068B8B10F
:100E00000120C8F80000FFF713FE064605E000BF0A
:100E1000FFF70EFE801B0228C0D828688007F7D590
:100E20002868216920F0F80040EAC10028600DE040
:100E3000C8F800A0FFF7FCFD064604E0FFF7F8FD48
:100E4000801B02281FD828688007F7D42078000765
:100E500022D5864F87486169703771B101210160E1
:100E6000FFF7E6FD064604E0FFF7E2FD801B0228DF
:100E700009D838688007F7D50EE0C0F800A0FFF762
:100E8000D7FD064605E082E0FFF7D2FD801B022871
:100E90007DD838688007F7D42078400768D5DFF818
:100EA000CCB100270BF13C0BDBF80000C0000BD4E9
:100EB000DBF8001041F08051CBF80010DBF80000A7
:100EC000012700F0805000906B4E3068C00510D4B0
:100ED000306840F480703060FFF7AAFD009005E0B4
:100EE000FFF7A6FD0099401A022850D83068C005C7
:100EF000F6D55E4EA0686C3601280FD00528306804
:100F000010D020F001003060306820F00400306024
:100F1000A068B8B1FFF78CFD00900FE0306840F09A
:100F20000100F4E740F004003060F7E7FFF780FDD0
:100F30000099411A41F28830814266D830688007B2
:100F4000F4D50EE0FFF774FD009007E0FFF770FDA9
:100F50000099411A41F28830814256D830688007A2
:100F6000F4D42FB1DBF8001021F08051CBF8001041
:100F7000A069C8B33D49091D0968C1F3810102296F
:100F80004AD00228504607D0C8F8600000E03CE094
:100F9000FFF74EFD04463BE04746C8F86000FFF708
:100FA00047FD064605E000BFFFF742FD801B022813
:100FB0002BD828688001F7D4D4E907010843A16A37
:100FC0002E4A490802EB0141626A41EA8211084354
:100FD00094F82C1040EA0161C9F80010012038662D
:100FE000FFF726FD044606E03EE000BFFFF720FDC8
:100FF000001B022809D828688001F7D534E000BF1B
:10100000FFF716FD001B022802D90320BDE8F88F68
:1010100028688001F4D427E00128F7D0D9F800002F
:10102000E26900F4800191421CD1226A00F03F0184
:10103000914217D147F6C071626A0140B1EB821F3D
:1010400010D1A26A4FF0FF3300F4403103EB52029B
:10105000B1EB024F06D194F82C1000F07060B0EBA9
:10106000016F01D00120D1E70020CFE70438024012
:1010700000004742800E4742007000400000FFFF22
:1010800010B5401EB0F1807F01D3012010BD4FF09C
:10109000E02460610F21601700F042FE0020A06193
:1010A00007202061002010BD7047704770B590F890
:1010B0003C20012A32D0012480F83C40022280F8F2
:1010C0003D2003685A689D6822F070060A68324322
:1010D0005A60134B02689A4214D0B2F1804F11D07B
:1010E000104B9A420ED0104B9A420BD00F4B9A42A3
:1010F00008D00F4B9A4205D00E4B9A4202D00E4BAD
:101100009A4204D1496825F080031943916080F820
:101110003D40002180F83C10084670BD022070BDA3
:10112000000001400004004000080040000C0040A6
:1011300000040140004001400018004010B50400C8
:1011400003D094F83D0010B107E0012010BD00204D
:1011500084F83C00204600F01FF8022084F83D008F
:10116000211D206800F07CFC012084F8460084F8F2
:101170003E0084F83F0084F8400084F8410084F881
:10118000420084F8430084F8440084F8450084F861
:101190003D00002010BD000008B500680B498842E2
:1011A00012D10B48016841F0020101600068002281
:1011B00000F00200009011461D20FFF7AFFCBDE8D3
:1011C00008401D20FFF79CBC08BD00000004004043
:1011D0004038024070B5044690F83C0000250128D4
:1011E00017D0012684F83C60022084F83D00206876
:1011F000826822F0770222F47F42826008685028D9
:1012000038D00DDC20284FD005DC90B3102811D148
:101210004AE0022070BD302846D040280AD13BE089
:1012200060282FD070280DD0B0F5805F03D0B0F5C6
:10123000005F12D0012584F83D60002084F83C0056
:10124000284670BDCB68D1E90121206800F070FC10
:101250002068816841F0770109E0CB68D1E901217C
:10126000206800F065FC2068816841F4804181605D
:10127000E1E719E0CA684968206800F02DFD5021B7
:10128000206806E0CA684968206800F036FD6021E1
:10129000206800F057FCCEE7CA684968206800F073
:1012A0001BFD40212068F4E7226801461046F0E764
:1012B0002DE9F0410D46040003D094F83D0018B12B
:1012C00008E00120BDE8F081002084F83C002046C1
:1012D00000F040F8022084F83D002068816844F264
:1012E000070291438160211D206800F0B9FB22684C
:1012F00090689169166A2B68AF69034340F2033026
:10130000814341EA0721A868EF6908434FF6FC4191
:101310008843E96840EA0720014328692F6A0001F1
:1013200040EA0730084369686D6926F0AA0646EA74
:101330000515294393602268906154F8460B0162B9
:10134000012004F81F09E0752076E0762077A0756B
:101350000020B7E730B587B0044614216846FEF791
:10136000FAFF364D22680021354802230124AA42A3
:101370003BD1334A1432156845F0010515601268F7
:1013800002F001020592026842F010020260006859
:1013900000F0100005904FF420600090CDE901317D
:1013A000CDE9031469462748FFF744FA00221146A5
:1013B0001820FFF7B3FB1820FFF7A2FB002211460D
:1013C0001920FFF7ABFB1920FFF79AFB002211460B
:1013D0001A20FFF7A3FB1A20FFF792FB0022114609
:1013E0001B20FFF79BFB1B2024E0B2F1804F23D191
:1013F000134A1032156845F001051560126802F0B5
:1014000001020592026842F001020260006800F0E9
:101410000100059003200090CDE90131CDE90314CE
:1014200069460948FFF706FA002211461C20FFF71B
:1014300075FB1C20FFF764FB07B030BD00000140C6
:1014400030380240001002400000024070472DE991
:10145000F04104460068C66805694FF00007A90717
:1014600013D5B10711D5F91E01610120207720683D
:1014700080698007204602D0FFF7E8FF04E000F013
:10148000A7F8204600F039F92777680716D57007C6
:1014900014D521686FF004000861022020772068CD
:1014A000806910F4407F204602D0FFF7CFFF04E0B0
:1014B00000F08EF8204600F020F92777280715D590
:1014C000300713D521686FF00800086104202077E9
:1014D0002068C0698007204602D0FFF7B7FF04E00C
:1014E00000F076F8204600F008F92777E80616D5D0
:1014F000F00614D521686FF01000086108202077ED
:101500002068C06910F4407F204602D0FFF79EFF9C
:1015100004E000F05DF8204600F0EFF82777E807D8
:1015200008D0F00706D021686FF00100086120465E
:1015300000F0E4F8280608D5300606D521686FF0DB
:10154000800008612046FFF7AFFD680608D57006E9
:1015500006D521686FF040000861204600F0CFF802
:10156000A8060AD5B00608D521686FF020000861EA
:101570002046BDE8F041FFF798BDBDE8F0810000CE
:1015800010B586B0044614216846FEF7E4FE0D4906
:101590002068884214D10C480021026842F0010200
:1015A0000260006800F001000590C0200090022059
:1015B000CDE90101CDE9031069460448FFF73AF986
:1015C00006B010BD00040040303802400000024068
:1015D000704770B5044690F83C0000260D4601287F
:1015E0000FD0012084F83C006AB1042A1DD0082ADB
:1015F0002FD00C2A3FD00126002084F83C00304632
:1016000070BD022070BD206800F0A4FA20688169D6
:1016100041F0080181612068816921F00401816144
:10162000206881692A69114311E0206800F0C2FA3C
:101630002068816941F4006181612068816921F439
:1016400080618161206881692A6941EA02218161A2
:10165000D2E7206800F0E4FA2068C16941F008018F
:10166000C1612068C16921F00401C1612068C169BC
:101670002A69114311E0206800F006FB2068C16967
:1016800041F40061C1612068C16921F48061C161D8
:101690002068C1692A6941EA0221C161ACE710B53D
:1016A000040003D094F83D0010B107E0012010BD04
:1016B000002084F83C00204600F01EF8022084F848
:1016C0003D00211D206800F0CBF9012084F8460080
:1016D00084F83E0084F83F0084F8400084F841001C
:1016E00084F8420084F8430084F8440084F84500FC
:1016F00084F83D00002010BD704770477047704768
:10170000FEE70000104810B50E490160032141605A
:1017100000214FF410228160C0E903124FF400123F
:1017200042610176012242768176C2760177427764
:10173000FEF790FF002803D0BDE81040FEF789BEF9
:1017400010BD0000006400401000002070B586B09D
:1017500014216846FEF7FFFD1E480024016841F091
:1017600004010160016801F004010591016841F084
:1017700080010160016801F080010591016841F07C
:1017800001010160016801F001010591016841F06A
:1017900010010160016801F010010591016841F03C
:1017A0000201016000680C4E00F002004FF4704529
:1017B0000590002229463046FFF734F901200095B4
:1017C000CDE90104694630460394FFF733F806B0CB
:1017D00070BD0000303802400004024010B58CB0EB
:1017E00024216846FEF7B7FD0024174809941549DF
:1017F0000A940160A721C0E9011440F2E731C0E971
:1018000003148021C0E905410120CDE90004CDE9A0
:1018100002040494CDE90540079469460A480894F7
:10182000FFF746FD08B1FEF714FE099409A9064822
:101830000A94FFF73BFC002801D0FEF70AFE0CB02B
:1018400010BD0000000001403800002010B58CB031
:1018500024216846FEF77FFD0024164809944FF0C6
:1018600080410A940160A721C0E9011440F2E731E8
:10187000C0E90314802181610120CDE90004CDE994
:1018800002040494CDE90540079469460948089488
:10189000FFF70EFD08B1FEF7DCFD099409A9054824
:1018A0000A94FFF703FC002801D0FEF7D2FD0CB02C
:1018B00010BD00008000002010B58EB000240794F9
:1018C000089409940A940B941C2168460C94FEF722
:1018D00042FD234821490160A721C0E9011440F2DB
:1018E000E731C0E9031480218161FFF727FC08B1CB
:1018F000FEF7AFFD4FF48050079007A91848FFF797
:1019000069FC08B1FEF7A5FD1548FFF7C8FE08B150
:10191000FEF79FFD0B940BA911480C94FFF7C6FB33
:1019200008B1FEF796FD6020CDE900040294002284
:1019300069460B480494FFF74CFE08B1FEF789FD99
:10194000042269460648FFF744FE08B1FEF781FD10
:101950000348FFF715FE0EB010BD00000004004064
:10196000C8000020FEE7FEE7704770477047FFF7AA
:1019700065B8000030B593B030216846FEF7EBFC47
:1019800014210CA8FEF7E7FC1D480025016841F072
:1019900080510160006800F0805011901948016882
:1019A00041F4804101600068022400F480401190FD
:1019B00001200090000401908001CDE9064008AAB2
:1019C0000420A82182E813000B906846FFF7A2F9D3
:1019D00008B172B6FEE70CA90F2081E831004FF480
:1019E000A0500F904FF48050109005210CA8FFF7E5
:1019F000C7F8002801D072B6FEE713B030BD000072
:101A000040380240007000400248016841F4700113
:101A10000160704788ED00E00148FFF718BD000045
:101A2000380000200148FFF712BD000038000020F8
:101A30000148FFF70CBD0000380000200148FFF707
:101A400006BD0000380000200148FFF700BD00007F
:101A5000800000200148FFF7FABC0000C800002009
:101A6000F0B50268274B284D284E294F294C4FF0DE
:101A7000804C984209D0604507D0A84205D0B042BA
:101A800003D0B84201D0A04204D122F0700E4A68BF
:101A900042EA0E0298421BD0604519D0A84217D0E6
:101AA000B04215D0B84213D0A04211D01A4DA8426E
:101AB0000ED01A4DA8420BD0194DA84208D0194D8E
:101AC000A84205D0184DA84202D0184DA84203D113
:101AD00022F44075CA682A434D6922F080022A43E5
:101AE0008D68C5620D688562984201D0A04201D11F
:101AF00009690163016841F004010160012141614C
:101B00000260F0BD000001400004004000080040F9
:101B1000000C00400004014000400140004401402E
:101B20000048014000180040001C00400020004018
:101B300010B5846842EA032224F47F440A43224316
:101B4000826010BD826822F070020A4342F00701F1
:101B500081607047F0B5036A026A22F001020262F6
:101B600042688469124E24F073050C682C4323F0FC
:101B700002058B682B430D4DA84201D0B04205D120
:101B800023F00807CB683B4323F00403A84201D0AD
:101B9000B04205D14D6922F4407215438A692A4347
:101BA00042608461496841630362F0BD0000014006
:101BB00000040140F0B5026A036A23F010030362D7
:101BC000436884690D6824F4E64444EA05248D687A
:101BD00022F0200242EA05120F4D104EA84201D019
:101BE000B04206D1CF6822F0800242EA071222F00A
:101BF0004002A84201D0B04207D14D6923F44063AE
:101C000043EA85038D6943EA85034360846149683B
:101C100081630262F0BD0000000001400004014049
:101C2000F0B5026A036A23F4807303624368C469EF
:101C300022F4007224F073050C68124E2C438D6858
:101C400042EA05220E4DA84201D0B04206D1CF682B
:101C500022F4006242EA072222F48062A84201D004
:101C6000B04207D14D6923F4405343EA05138D690F
:101C700043EA05134360C4614968C1630262F0BD71
:101C8000000001400004014030B5046A026A22F4F9
:101C9000805202624268C3690D6823F4E64343EA56
:101CA00005238D6824F4005444EA0534084DA84205
:101CB00002D0084DA84204D14D6922F4804242EA84
:101CC00085124260C36149680164046230BD00004E
:101CD000000001400004014010B5036A046A24F0CA
:101CE00001040462846924F0F00444EA021423F03D
:101CF0000A020A438461026210BD10B5036A046AD5
:101D000024F010040462846923F0A00324F47044D6
:101D100044EA023243EA01118261016210BDFEE72A
:101D20000907090E002804DB00F1E02080F8001408
:101D3000704700F00F0000F1E02080F8141D70479C
:101D4000FEF784FEFFF716FEFFF700FDFFF7DAFC53
:101D5000FFF744FDFFF77AFDFFF7AEFDFEE74FF01A
:101D60004070E1EE100A7047000000000000000023
:101D70000102030406070809981D0008000000205E
:101D800010000000C4010008A81D00081000002079
:101D900060070000E00100080100000010000000E2
:081DA000000000000024F40023
:040000050800018965
:00000001FF
